:040000008A15002835
:10000800FF00030E8301EF000A088316A4008A018B
:1000180070088312AE007108AD007208AC00730856
:10002800AB007408AA007508A9007608A80077082C
:10003800A7007808A6007908A5007A08A4007B081C
:10004800A3007C08A2007D08A1000408AF000C1CD6
:10005800A2298F018E015C08F0005D08F1001125CE
:100068007008C9007108CA007208CB007308CC0078
:10007800AC2470088316AD007108AE006430F4003B
:100088000030F5002D08F0002E08F10080253030F2
:100098007007D4000A30F4000030F50083162D08EC
:1000A800F0002E08F10080250A30F4000030F50039
:1000B80080257808F0007908F10030307007D50005
:1000C8000A30F4000030F50083162D08F0002E08E1
:1000D800F10080257808F0007908F10030307007C9
:1000E800D60054308316BD00EF258312DC01DD01F4
:1000F8004908F4004A08F5004B08F6004C08F700D8
:100108003408F0003508F1003608F2003708F3002B
:10011800E92570088316B9007108BA007208BB0097
:100128007308BC0039088312E00083163A0883126A
:10013800E10083163B088312E20083163C08831211
:10014800E30083163908F4003A08F5003B08F60086
:100158003C08F70083123C08F0003D08F1003E0817
:10016800F2003F08F300E9250030F4000030F50004
:100178000030F6007D30F700E72270088316B500DE
:100188007108B6007208B7007308B8003508831202
:10019800D000831636088312D100831637088312DD
:1001A800D200831638088312D300831639088312C5
:1001B800BC0083163A088312BD0083163B088312DD
:1001C800BE0083163C088312BF003008F0003108D7
:1001D800F1003208F2003308F30083163908F400FE
:1001E8003A08F5003B08F6003C08F700D3237008EE
:1001F8008316B1007108B2007208B3007308B40026
:1002080031088312B000831632088312B1008316B6
:1002180033088312B200831634088312B30083169E
:100228003908F0003A08F1003B08F2003C08F300F6
:1002380083123808F4003908F5003A08F6003B083C
:10024800F700E72270088316AD007108AE00720847
:10025800AF007308B0003108F0003208F10033082D
:10026800F2003408F30083124508F4004608F5004C
:100278004708F6004808F700E72283162D08F4001F
:100288002E08F5002F08F6003008F700D323700871
:100298008316AD007108AE007208AF007308B00095
:1002A80083124108F0004208F1004308F2004408B4
:1002B800F30083163508F4003608F5003708F60011
:1002C8003808F700E72283162D08F4002E08F500F9
:1002D8002F08F6003008F700D32370088316A00013
:1002E8007108A1007208A2007308A300062670080E
:1002F800C00083163908F4003A08F5003B08F600F8
:100308003C08F700F001F101F201F301CE260130BB
:1003180003180030F000700803199A294008831662
:10032800BD003B258316BD019526A1298316BD0175
:100338003B2540088316BD0095260C108B1CAA2966
:100348000C18AA29DC0A0319DD0A8B102E08F00004
:100358002D08F1002C08F2002B08F3002A08F400FD
:100368002908F5002808F6002708F7002608F800ED
:100378002508F9002408FA002308FB002208FC00DD
:100388002108FD002F088400831624088A008312A0
:0A0398006F0E8300FF0E7F0E0900B8
:0803A200FA1FF21300300800FD
:0E03AA00F201F101F001F801F301003008004A
:1003B8007B15FB1FE6290130F300F201F101F00182
:0803C800FA0DF20CFF300800F1
:1003D000FB14FB1FF229FF30F300F200F100F000E4
:0803E000FA0DF20CFF300800D9
:1003E8007C182A2AFC18FB297C19492AF429A0011F
:1003F8007208031D1B2A7108F2007008F1007808C2
:10040800F000F801A0157208031D1B2A7108F200FC
:100418007008F100F001A01120167208031D1B2AB4
:100428007108F200F101A015720803193D2A20088D
:10043800F302031D031C412A0310F21B2A2AF80D9C
:10044800F00DF10DF20DF30B212A412A7B1B701CD4
:10045800452AF81F452AF00A0319F10A0319F20A76
:10046800031D452AF20CF10CF00CF30A0319492A72
:10047800452A0130FC00D5214C2A0230FC00DC2141
:100488004C2A0430FC00D1214C2A0830FC00E82119
:040498000000080058
:10049C00A0017208031D632A7108F2007008F100B4
:1004AC00F001A0157208031D632A7108F200F10116
:1004BC00A011201672080319712A2008F302031DDB
:1004CC00031C752A0310F21B792AF00DF10DF20DA5
:1004DC00F30B692A752A0130FC00D5217C2A0230E5
:0E04EC00FC00DC217C2A0430FC00D121080039
:1004FA000F3083120313FC004730FD00FD0B832AE3
:0A050A00FC0B832A0000000008002B
:06051400000000000800D9
:10051A007B14FB1F982AF201FA1FFF30F200F10048
:0A052A00F000FA0DF20CFF3008009B
:1005340083120313FB01FA01F9018030F800F10C76
:10054400F00C031CAE2A7408F90775080318750F1C
:10055400FA070318FB0A0310F01FB62A7408FA07F7
:1005640075080318750FFB07FB0CFA0CF90CF80C53
:10057400031CA12A7B08F3007A08F2007908F10031
:060584007808F0000800F9
:0E058A00831203135F088A005E0882000800D7
:1005980083160313981690308312980083168717D2
:1005A800071383128C1EDB2A1A08F000D52A0800CC
:1005B800831203131A08F100981CE42A181218165B
:0605C8007108F0000800BC
:1005CE0083120313FB017308031D770803193E2BD7
:1005DE0072087606FA007708F3077E30031CFB2AB2
:1005EE00F3020318412BFE2AF302031C442B72085C
:1005FE00F8007108FC007008FD00F817F6170310DC
:10060E00F201F101F0011830A0007D1C182B7408C6
:10061E00F00775080318750FF10776080318760FA3
:10062E00F207F20CF10CF00CF80CFC0CFD0C0310A4
:10063E00A00B0C2BF21B282BF80DF00DF10DF20D6B
:10064E00F3037B1B701C3A2BF81F3A2BF00A03198D
:10065E00F10A0319F20A031D3A2BF20CF10CF00CFD
:10066E00F30A0319412BFA1FF2130030462B013007
:10067E00D521462B0230E821462B0430DC21000028
:02068E00080062
:100690008316031388120812081088100811881195
:1006A00083128812081288110811881008107D2200
:1006B0007D227D228814081488168A2288127D22C1
:1006C00088168A2288127D2288168A2288127D2224
:1006D000081088168A2288127D2288168A2288129B
:1006E0008810881588168A2288127D22881108149D
:1006F00088168A228812081088168A2288127D227B
:1007000088168A228812081488168A2288127D2266
:10071000081088168A22881288150815881408146B
:0C07200088168A2288127D226E140800C0
:0E072C000030831203138C1A0130F000080015
:10073A00710DF80DF90D7408F8027508031C750F90
:10074A00F902F00DF10D0F30FC00710DF80DF90DE5
:10075A007408701CB62BF8027508031C750FF90291
:10076A00BB2BF80775080318750FF907F00DF10D83
:10077A00FC0BAA2B7018C72B7408F8077508031806
:08078A00750FF90700000800DB
:10079200831603139818CF2B0000C92B400883122D
:0407A20099000800B2
:1007A6008312031372087606A000F801F901730894
:1007B6007702031CF62B7708FD007308F7007D0807
:1007C600F3007608FD007208F6007D08F200750851
:1007D600FD007108F5007D08F1007408FD00700841
:1007E600F4007D08F000770803196F2C7208FA00F0
:1007F600F217F61777087302F7000319292C083049
:100806007702031C1F2CF7007408F9007508F40022
:100816007608F500F60108307702031C1F2CF70056
:100826007408F9007508F400F50108307702031C16
:100836001F2C7A08F2006F2C77080319292C031055
:10084600F60CF50CF40CF90CF70B222CA01F362C29
:10085600F909F409F509F609F90A0319F40A03195D
:10086600F50A0319F60A7908F80774080318740FCD
:10087600F00775080318750FF10776080318760F49
:10088600F207A01B4F2C031C5F2CF20CF10CF00C92
:10089600F80CF30F5F2C6B2C0318632CF809F00986
:1008A600F109F209F80A0319F00A0319F10A031902
:1008B600F20A8030FA06672C0130FC00F421712C14
:1008C6000230FC00F421712C0430FC004E22712C05
:1008D6000830FC00E821712C0030FC000000080004
:1008E6008B170B170B16831603130C140614061618
:1008F60086160117831290108F018E01101690161E
:100906003408E0003508E1003608E2003708E30065
:100916003408F0003508F1003608F2003708F30015
:100926000030F4000030F5000030F6007D30F700AE
:10093600E7227008B0007108B1007208B2007308AF
:10094600B30010143330831699001815CC224823AF
:02095600080097
:1009580083120313FB0173080319E92C7208FA00C8
:10096800F2178E30F302F31FEC2CF309F30A083068
:100978007302031CCF2CF300F10D7208F100F20191
:1009880008307302031CCF2CF300F10DF10173083A
:10099800031D0310D72C73080319D72C0310F20C6E
:1009A800F10CF30BD22C7B1B711CE12C031CE12CEA
:1009B800F10A0319F20AF21BF82CFA1FFB2CF209B0
:1009C800F109F10A0319F20AFB2CF201F101FB2CDF
:1009D8007B14FB1FFE2CF201FA1FFE2CFF30F200E5
:1009E800F100FA0DF20CFE2C0130FC00002D003055
:1009F800FC00002DFF30FC00FC080319042D8D229B
:0A0A08007108F0007208F100080008
:100A1200831603130711831212150C309704080072
:100A2200831203137008F8007108F000F101F2015B
:100A3200F301FB01FC019630F300FA01F01F272DB0
:100A4200F809F009F80A0319F00AFA177008F10018
:0C0A52007808F000F801F2014E220800C4
:0C0A5E00831203139B011D129D1208005F
:0C0A6A0083120313950117129712080065
:100A7600831603131208013EF000F1010318F10A70
:100A86003D08F400F5019A220630F2007008F400E1
:100A96007108F50072080319552DF50CF40CF513C1
:100AA600FF3E4E2D0430F1007408F0007108031962
:100AB600602DF00D7010FF3E5A2D30307005F3009A
:100AC6007408F0007508F100F10CF00CF113F10C4C
:100AD600F00CF113700895000F3097057308970412
:020AE600080006
:100AE800C5228A110A128000840ADE0A0319DF0A65
:080AF800F003031D742D08003A
:100B0000831203137408003A031D8F2D7508003AF1
:100B1000031D8F2DFF30F0007F30F100E82D831290
:100B20000313FD01F901F801710870040319003481
:100B300071087506FA00FA1BFD09FB01F51FA52DCA
:100B4000F409F509F40A0319F50AF11FAC2DF009AF
:100B5000F109F00A0319F10A71087504FA00FA1B89
:100B6000C12D9D237B18D42DFD1F0034F009F10900
:100B7000F00A0319F10AF809F909F80A0319F90A40
:100B80000034F51FD02DF11BCC2D7108F900700831
:100B9000F800F101F001B42DF101F001F00A003488
:100BA000F109F009FB0AB12DF80A0319F90A7408D2
:100BB0007802031DB42D75087902031DB42DF901C7
:100BC000F801F00A0319F10AF11FB42D0000FF34F7
:020BD00008001B
:0C0BD200831203138030F606D3230800C2
:100BDE0083160313BF013D0884000008BE003E08C3
:100BEE00003A0319052E3E08C000C9238316BF0A1A
:0E0BFE003F083D0784000008BE00F62D0800E9
:100C0C0083120313FB01FC01FA0173080319332E41
:100C1C00FA13F2178630F302F31B172E0319172E53
:100C2C00352EF309F30A08307302031C242EF3004B
:100C3C00F20DF2017308031D03102B2E7308031918
:100C4C002B2E0310F20CF30B272E7B1B721C332E56
:100C5C00031C332EF20A03193A2EF1013D2E7B149C
:100C6C00FB1F402EF101402E0130FC00422E0030C3
:100C7C00FC00422EFF30FC00FC080319462E8D228E
:060C8C007208F0000800F0
:100C920083160313AB01AC0129080319892E290815
:100CA200FF3A0319552EA90396237008003A031D33
:100CB2005B2E552EDC2270088316AA002B0827070C
:100CC200840070088000AB0A2C0828078400000802
:100CD2002A06031D6E2EAC0A762EAC01280884006B
:100CE20000082A06031D762EAC0A2C082807840069
:100CF2000008003A031D882E2C082B02F000F10197
:100D0200031CF10370082707840080018C2E4D2EEE
:080D120027088400800108009D
:100D1A00831603138710831212150C309D040800E2
:100D2A00831603131208013EF000F1010318F10AB9
:100D3A003D08F400F5019A220630F2007008F4002A
:100D4A007108F50072080319AF2EF50CF40CF513AF
:100D5A00FF3EA82E0430F1007408F0007108031950
:100D6A00BA2EF00D7010FF3EB42E30307005F3002D
:100D7A007408F0007508F100F10CF00CF113F10C95
:100D8A00F00CF11370089B000F309D0573089D0449
:020D9A0008004F
:100D9C0083120313FA017308031D7A147708031DD9
:100DAC00FA147A0803191A2F033A0319E52E7A1844
:100DBC00E22EF61F182F162FF21F162F182F72085F
:100DCC008039FA00F21376088039F6137A06031983
:100DDC00F32E7A080319162F182F770873020319AC
:100DEC00FA2E031C0E2F122F760872020319012FF4
:100DFC00031C0E2F122F750871020319082F031CE8
:100E0C000E2F122F7408700203191A2F0318122FA9
:100E1C00FA080319182F162FFA080319162F182F72
:100E2C00031408000310080003140315080008003D
:100E9800303084002E3083120313F0001E30DE0041
:080EA8000730DF00742508008B
:101000008A114C278A158312031312149214F93093
:10101000831692008A1135258A1512149214F9301C
:10102000831692008A112F258A158A118D268A151A
:101030008A1109258A158A1173248A158A11962323
:101040008A157008013A031D722864308316A700C0
:101050004D30A8000630A9008A1149268A15303083
:1010600083126402F000F101031CF1036430F40008
:101070000030F5008A119A228A1570088316A5009F
:101080007108A600303083126502F000F101031CE4
:10109000F1030A30F4000030F5008A119A228A1513
:1010A000700883162507F20026080318013E710711
:1010B000F300303083126602F000F101031CF103EB
:1010C0007208F00773080318013EF1078A11112511
:1010D0008A157008B4007108B5007208B60073086C
:0810E000B700E4011E2873288B
:080E3C000034003400340034DE
:080E4400003400344834853409
:080E4C00003400343434843416
:080E54000034003400340034C6
:020E5C00003460
:080E5E000034003400340034BC
:080E66000034003458348534D7
:080E6E000034003400340034AC
:060E76004F344B34003440
:080E7C0000340034003400349E
:100E8400303430343034523450344D34203400341F
:040E940000340034F2
:02400E004A2F37
:00000001FF
