:040000008A15002835
:10000800FF00030E8301EE000A08EF008A01700862
:10001800AD007108AC007208AB007308AA00740840
:10002800A9007508A8007608A7007708A600780830
:10003800A5007A08A4007B08A3007C08A2007D081C
:10004800A1000408AE000C1CB2298F018E013B08E8
:10005800F0003C08F100CA257008AF007108B00034
:100068007208B1007308B2006D2570088316A400E9
:100078007108A5006430F4000030F5002408F00091
:100088002508F100E82530307007C5000A30F40073
:100098000030F50083162408F0002508F100E82553
:1000A8000A30F4000030F500E8257808F0007908F7
:1000B800F10030307007C6000A30F4000030F50057
:1000C80083162408F0002508F100E8257808F000D8
:1000D8007908F10030307007C70001308316B4008A
:1000E8000130B5004D30B600D42402308316B40078
:1000F8000130B5004530B600D42445308316B4002D
:1001080045278312BB01BC012F08F4003008F50015
:100118003108F6003208F7003308F0003408F1001F
:100128003508F2003608F300CD2670088316B000B3
:100138007108B1007208B2007308B3003008831266
:10014800E300831631088312E40083163208831211
:10015800E500831633088312E60083163008F4009E
:100168003108F5003208F6003308F70083123D081D
:10017800F0003E08F1003F08F2004008F300CD26E9
:100188000030F4000030F5000030F6007D30F70054
:10019800452370088316AC007108AD007208AE00E4
:1001A8007308AF002C088312C10083162D08831230
:1001B800C20083162E088312C30083162F088312E9
:1001C800C400831630088312BD00831631088312D9
:1001D800BE00831632088312BF00831633088312C9
:1001E800C00083163008F0003108F1003208F20030
:1001F8003308F3000030F4000030F5000030F6005A
:100208007D30F70045233708F4003808F500390831
:10021800F6003A08F700BD2370088316A800710895
:10022800A9007208AA007308AB0028088312B70057
:10023800831629088312B80083162A088312B90086
:1002480083162B088312BA0083163008F000310891
:10025800F1003208F2003308F30083125608F40064
:100268005708F5005808F6005908F70045237008A4
:100278008316A4007108A5007208A6007308A700D9
:100288002808F0002908F1002A08F2002B08F300DA
:1002980083125F08F4006008F5006108F600620840
:1002A800F700452383162408F4002508F5002608DE
:1002B800F6002708F700BD2370088316A40071080C
:1002C800A5007208A6007308A70083125B08F00057
:1002D8005C08F1005D08F2005E08F30083162C0844
:1002E800F4002D08F5002E08F6002F08F700452326
:1002F80083162408F4002508F5002608F6002708C8
:10030800F700BD237008EA007108EB007208EC00E2
:100318007308ED0051267008DA0083163008F400DF
:100328003108F5003208F6003308F700F001F10152
:10033800F201F3011725013003180030F0007008AE
:100348000319AE295A088316B4000C278316B40182
:100358009426B1298316B4010C270C108B1CBA29DA
:100368000C18BA29BB0A0319BC0A8B102D08F00017
:100378002C08F1002B08F2002A08F3002908F400E1
:100388002808F5002708F6002608F7002508F800D1
:100398002408FA002308FB002208FC002108FD00BD
:1003A8002E0884006F088A006E0E8300FF0E7F0EF1
:0203B80009003A
:0603BA0000000000080035
:0803C000FA1FF21300300800DF
:0E03C800213083120313FD00FD0BE82908000D
:1003D6000F3083120313FC004730FD00FD0BF1299B
:0A03E600FC0BF129000000000800E4
:1003F0007B15FB1F022A0130F300F201F101F0012D
:08040000FA0DF20CFF300800B8
:10040800FB14FB1F0E2AFF30F300F200F100F0008E
:08041800FA0DF20CFF300800A0
:0E042000F201F101F001F801F30100300800D3
:10042E00A0017208031D2C2A7108F2007008F10059
:10043E00F001A0157208031D2C2A7108F200F101BB
:10044E00A0112016720803193A2A2008F302031D80
:10045E00031C3E2A0310F21B422AF00DF10DF20D81
:10046E00F30B322A3E2A0130FC001022452A0230BC
:0E047E00FC00F821452A0430FC00E0210800B3
:10048C0083160313B91B4D2A831288114F2A83122A
:10049C0088158316391B552A83120811572A831283
:1004AC0008158316B91A5D2A831288105F2A8312E5
:1004BC0088148316391A652A83120810672A831246
:1004CC00081467186B2A08166C2A08128816DD2186
:1004DC0088128316B919752A83128811772A831208
:1004EC008815831639197D2A831208117F2A8312E5
:1004FC0008158316B918852A83128810872A831247
:10050C008814831639188D2A831208108F2A8312A7
:10051C0008146718932A0816942A08128816DD21E5
:0E052C008812671C9B2AEB219C2AE421080000
:10053A007C18D32AFC18A42A7C19F22A9D2AA00125
:10054A007208031DC42A7108F2007008F1007808C5
:10055A00F000F801A0157208031DC42A7108F20000
:10056A007008F100F001A01120167208031DC42AB8
:10057A007108F200F101A01572080319E62A200891
:10058A00F302031D031CEA2A0310F21BD32AF80DF7
:10059A00F00DF10DF20DF30BCA2AEA2A7B1B701C2F
:1005AA00EE2AF81FEE2AF00A0319F10A0319F20AD1
:1005BA00031DEE2AF20CF10CF00CF30A0319F22ACD
:1005CA00EE2A0130FC001022F52A0230FC00F82144
:1005DA00F52A0430FC00E021F52A0830FC00042248
:0405EA000000080005
:1005EE008316031388120812081088100811881138
:1005FE008312881208128811081188100810EB2136
:10060E00EB21EB21881408148816DD218812EB21CA
:10061E008816DD218812EB218816DD218812EB2148
:10062E0008108816DD218812EB218816DD2188122C
:10063E00881088158816DD218812EB218811081480
:10064E008816DD21881208108816DD218812EB210C
:10065E008816DD21881208148816DD218812EB21F8
:10066E0008108816DD2188128815081588140814BC
:0C067E008816DD218812EB2167140800AB
:10068A0083120313FB017308031D770803199C2BBC
:10069A0072087606FA007708F3077E30031C592B96
:1006AA00F30203189F2B5C2BF302031CA22B720884
:1006BA00F8007108FC007008FD00F817F61703101F
:1006CA00F201F101F0011830A0007D1C762B7408AC
:1006DA00F00775080318750FF10776080318760FE7
:1006EA00F207F20CF10CF00CF80CFC0CFD0C0310E8
:1006FA00A00B6A2BF21B862BF80DF00DF10DF20DF3
:10070A00F3037B1B701C982BF81F982BF00A031914
:10071A00F10A0319F20A031D982BF20CF10CF00CE2
:10072A00F30A03199F2BFA1FF2130030A42B01308E
:10073A001022A42B02300422A42B0430F82100003A
:02074A000800A5
:0E074C008312031369088A00680882000800FF
:10075A00831603139816903083129800831687170E
:10076A00071383128C1EBC2B1A08F000B62B080044
:10077A008312031372087606A000F801F9017308C0
:10078A007702031CE02B7708FD007308F7007D0849
:10079A00F3007608FD007208F6007D08F20075087D
:1007AA00FD007108F5007D08F1007408FD0070086D
:1007BA00F4007D08F00077080319592C7208FA0032
:1007CA00F217F61777087302F7000319132C08308B
:1007DA007702031C092CF7007408F9007508F40065
:1007EA007608F500F60108307702031C092CF70099
:1007FA007408F9007508F400F50108307702031C43
:10080A00092C7A08F200592C77080319132C0310C3
:10081A00F60CF50CF40CF90CF70B0C2CA01F202C81
:10082A00F909F409F509F609F90A0319F40A031989
:10083A00F50A0319F60A7908F80774080318740FF9
:10084A00F00775080318750FF10776080318760F75
:10085A00F207A01B392C031C492CF20CF10CF00CEA
:10086A00F80CF30F492C552C03184D2CF809F009F4
:10087A00F109F209F80A0319F00A0319F10A03192E
:10088A00F20A8030FA06512C0130FC009D225B2CC2
:10089A000230FC009D225B2C0430FC0017225B2CEA
:1008AA000830FC0004225B2C0030FC000000080029
:1008BA00710DF80DF90D7408F8027508031C750F0F
:1008CA00F902F00DF10D0F30FC00710DF80DF90D64
:1008DA007408701C762CF8027508031C750FF9024F
:1008EA007B2CF80775080318750FF907F00DF10D41
:1008FA00FC0B6A2C7018872C7408F8077508031803
:08090A00750FF9070000080059
:1009120083120313FB01FA01F9018030F800F10C94
:10092200F00C031C9D2C7408F90775080318750F49
:10093200FA070318FB0A0310F01FA52C7408FA0724
:1009420075080318750FFB07FB0CFA0CF90CF80C71
:10095200031C902C7B08F3007A08F2007908F1005E
:060962007808F000080017
:100968007B14FB1FBF2CF201FA1FFF30F200F100CD
:0A097800F000FA0DF20CFF30080049
:10098200831603139818C72C0000C12C3808831251
:0409920099000800C0
:1009960083120313671083163808B90046226714BA
:0209A600080047
:1009A800E62C803083160313B400F92CC030B40051
:1009B800F92C9430B400F92CD430B400F92C8030E0
:1009C800B400F92C831603133408013A0319D52C03
:1009D8003408023A0319DA2C3408033A0319DD2CD7
:1009E8003408043A0319E02CE32C3503F0003408EA
:1009F800F0077008B4007008B90046226710831623
:100A0800B70137083607840000080319142D370882
:100A1800360784000008B800CB248316B70A052DD2
:060A2800831267140800B0
:100A2E0083120313FA017308031D7A147708031D4A
:100A3E00FA147A080319632D033A03192E2D7A1826
:100A4E002B2DF61F612D5F2DF21F5F2D612D72086C
:100A5E008039FA00F21376088039F6137A060319F4
:100A6E003C2D7A0803195F2D612D77087302031947
:100A7E00432D031C572D5B2D7608720203194A2D48
:100A8E00031C572D5B2D750871020319512D031C84
:100A9E00572D5B2D740870020319632D03185B2DFF
:100AAE00FA080319612D5F2DFA0803195F2D612DC8
:100ABE0003140800031008000314031508000800AF
:0C0ACE00831203139B011D129D120800EF
:100ADA0083120313FB0173080319AA2D7208FA0083
:100AEA00F2178E30F302F31FAD2DF309F30A083023
:100AFA007302031C902DF300F10D7208F100F2014C
:100B0A0008307302031C902DF300F10DF1017308F4
:100B1A00031D0310982D73080319982D0310F20C66
:100B2A00F10CF30B932D7B1B711CA22D031CA22D20
:100B3A00F10A0319F20AF21BB92DFA1FBC2DF209A8
:100B4A00F109F10A0319F20ABC2DF201F101BC2DD7
:100B5A007B14FB1FBF2DF201FA1FBF2DFF30F200DD
:100B6A00F100FA0DF20CBF2D0130FC00C12D00304E
:100B7A00FC00C12DFF30FC00FC080319C52DB4246C
:0A0B8A007108F0007208F100080085
:100B9400831203137008F8007108F000F101F201E8
:100BA400F301FB01FC019630F300FA01F01FE02D84
:100BB400F809F009F80A0319F00AFA177008F100A5
:0C0BC4007808F000F801F2011722080088
:100BD000831203137408003A031DF72D7508003AB9
:100BE000031DF72DFF30F0007F30F100502E8312EF
:100BF0000313FD01F901F8017108700403190034B1
:100C000071087506FA00FA1BFD09FB01F51F0D2E90
:100C1000F409F509F40A0319F50AF11F142EF00975
:100C2000F109F00A0319F10A71087504FA00FA1BB8
:100C3000292E5D247B183C2EFD1F0034F009F1099C
:100C4000F00A0319F10AF809F909F80A0319F90A6F
:100C50000034F51F382EF11B342E7108F90070088E
:100C6000F800F101F0011C2EF101F001F00A00344E
:100C7000F109F009FB0A192EF80A0319F90A740898
:100C80007802031D1C2E75087902031D1C2EF90124
:100C9000F801F00A0319F10AF11F1C2E0000FF34BD
:020CA00008004A
:100CA20083120313FB01FC01FA01730803197E2E60
:100CB200FA13F2178630F302F31B622E0319622E27
:100CC200802EF309F30A08307302031C6F2EF3001F
:100CD200F20DF2017308031D0310762E7308031937
:100CE200762E0310F20CF30B722E7B1B721C7E2EDF
:100CF200031C7E2EF20A0319852EF101882E7B1425
:100D0200FB1F8B2EF1018B2E0130FC008D2E00304B
:100D1200FC008D2EFF30FC00FC080319912EB42438
:060D22007208F000080059
:100D2800831603131208013EF000F1010318F10ABB
:100D38003408F400F50189240630F2007008F40044
:100D48007108F50072080319AE2EF50CF40CF513B2
:100D5800FF3EA72E0430F1007408F0007108031953
:100D6800B92EF00D7010FF3EB32E30307005F30031
:100D78007408F0007508F100F10CF00CF113F10C97
:100D8800F00CF11370089B000F309D0573089D044B
:020D9800080051
:0C0D9A00831203138030F606BD2308000E
:100DA6008B170B170B16831603130C140614061653
:100DB60086160117831290108F018E011016901659
:100DC6003308E3003408E4003508E5003608E60099
:100DD6003308F0003408F1003508F2003608F30055
:100DE6000030F4000030F5000030F6007D30F700EA
:100DF60045237008B7007108B8007208B900730877
:100E0600BA0010143330831699001815AD23F72253
:020E16000800D2
:100E1800831603131208013EF000F1010318F10ACA
:100E28003408F400F50189240630F2007008F40053
:100E38007108F50072080319262FF50CF40CF51348
:100E4800FF3E1F2F0430F1007408F00071080319E9
:100E5800312FF00D7010FF3E2B2F30307005F3004E
:100E68007408F0007508F100F10CF00CF113F10CA6
:100E7800F00CF113700895000F309705730897046C
:020E8800080060
:100E8A0083160313B601340884000008B500350838
:100E9A00003A03195B2F3508B800C1248316B60A35
:0E0EAA003608340784000008B5004C2F0800FD
:100EB800A6238A110A128000840AE80A0319E90A9B
:080EC800F003031D5C2F08007C
:0C0ED000831203139501171297120800FB
:100EDC00831603130711831212150C3097040800A4
:100EEC00831603138710831212150C309D0408000F
:100F64002F308400343083120313F0007E30E80005
:080F74000730E9005C270800CA
:101000008A11B2278A158312031312149214F9302D
:10101000831692008A1168278A1512149214F930E7
:10102000831692008A1167258A158A1176278A15F8
:101030008A116E278A158A11D3268A151E281F2821
:080EFC0000340034003400341E
:080F0400003400344834853448
:080F0C0000340034003400340D
:040F14000034003471
:080F1800003400340034003401
:080F20000034003400340034F9
:100F2800303430343034523450344D34203400347A
:100F3800423452345A3449344E3441343A342034E9
:020F4800003473
:080F4A0000340034203483342C
:020F5200003469
:080F54000034003400340034C5
:080F5C000034003400347E343F
:02400E004A2F37
:00000001FF
